{
    "contractName": "ZombieFeeding",
    "abi": [
        {
            "anonymous": false,
            "inputs": [
                {
                    "indexed": false,
                    "internalType": "uint256",
                    "name": "zombieId",
                    "type": "uint256"
                },
                {
                    "indexed": false,
                    "internalType": "string",
                    "name": "name",
                    "type": "string"
                },
                {
                    "indexed": false,
                    "internalType": "uint256",
                    "name": "dna",
                    "type": "uint256"
                }
            ],
            "name": "NewZombie",
            "type": "event"
        },
        {
            "inputs": [
                {
                    "internalType": "string",
                    "name": "_name",
                    "type": "string"
                }
            ],
            "name": "createRandomZombie",
            "outputs": [],
            "stateMutability": "nonpayable",
            "type": "function"
        },
        {
            "inputs": [
                {
                    "internalType": "uint256",
                    "name": "_zombieId",
                    "type": "uint256"
                },
                {
                    "internalType": "uint256",
                    "name": "_targetDna",
                    "type": "uint256"
                },
                {
                    "internalType": "string",
                    "name": "_species",
                    "type": "string"
                }
            ],
            "name": "feedAndMultiply",
            "outputs": [],
            "stateMutability": "nonpayable",
            "type": "function"
        },
        {
            "inputs": [
                {
                    "internalType": "uint256",
                    "name": "_zombieId",
                    "type": "uint256"
                },
                {
                    "internalType": "uint256",
                    "name": "_kittyId",
                    "type": "uint256"
                }
            ],
            "name": "feedOnKitty",
            "outputs": [],
            "stateMutability": "nonpayable",
            "type": "function"
        },
        {
            "inputs": [
                {
                    "internalType": "uint256",
                    "name": "",
                    "type": "uint256"
                }
            ],
            "name": "zombieToOwner",
            "outputs": [
                {
                    "internalType": "address",
                    "name": "",
                    "type": "address"
                }
            ],
            "stateMutability": "view",
            "type": "function"
        },
        {
            "inputs": [
                {
                    "internalType": "uint256",
                    "name": "",
                    "type": "uint256"
                }
            ],
            "name": "zombies",
            "outputs": [
                {
                    "internalType": "string",
                    "name": "name",
                    "type": "string"
                },
                {
                    "internalType": "uint256",
                    "name": "dna",
                    "type": "uint256"
                }
            ],
            "stateMutability": "view",
            "type": "function"
        }
    ],
    "bytecode": "60806040526010600055662386f26fc10000600155600580546001600160a01b03199081167306012c8cf97bead5deae237070f9587f8e7a266d1791829055600680549091166001600160a01b039290921691909117905534801561006357600080fd5b50610849806100736000396000f3fe608060405234801561001057600080fd5b50600436106100575760003560e01c806317a7f4cc1461005c5780632052465e14610081578063528b7b8f1461011d5780636b0bfc80146101565780637bff0a0114610208575b600080fd5b61007f6004803603604081101561007257600080fd5b50803590602001356102ae565b005b61009e6004803603602081101561009757600080fd5b503561035d565b6040518080602001838152602001828103825284818151815260200191508051906020019080838360005b838110156100e15781810151838201526020016100c9565b50505050905090810190601f16801561010e5780820380516001836020036101000a031916815260200191505b50935050505060405180910390f35b61013a6004803603602081101561013357600080fd5b5035610410565b604080516001600160a01b039092168252519081900360200190f35b61007f6004803603606081101561016c57600080fd5b81359160208101359181019060608101604082013564010000000081111561019357600080fd5b8201836020820111156101a557600080fd5b803590602001918460018302840111640100000000831117156101c757600080fd5b91908080601f01602080910402602001604051908101604052809392919081815260200183838082843760009201919091525092955061042b945050505050565b61007f6004803603602081101561021e57600080fd5b81019060208101813564010000000081111561023957600080fd5b82018360208201111561024b57600080fd5b8035906020019184600183028401116401000000008311171561026d57600080fd5b91908080601f01602080910402602001604051908101604052809392919081815260200183838082843760009201919091525092955061056c945050505050565b6006546040805163e98b7f4d60e01b81526004810184905290516000926001600160a01b03169163e98b7f4d91602480830192610140929190829003018186803b1580156102fb57600080fd5b505afa15801561030f573d6000803e3d6000fd5b505050506040513d61014081101561032657600080fd5b5061012001516040805180820190915260058152646b6974747960d81b6020820152909150610358908490839061042b565b505050565b6002818154811061036a57fe5b60009182526020918290206002918202018054604080516001831615610100026000190190921693909304601f8101859004850282018501909352828152909350918391908301828280156104005780601f106103d557610100808354040283529160200191610400565b820191906000526020600020905b8154815290600101906020018083116103e357829003601f168201915b5050505050908060010154905082565b6003602052600090815260409020546001600160a01b031681565b6000838152600360205260409020546001600160a01b0316331461044e57600080fd5b60006002848154811061045d57fe5b90600052602060002090600202019050600154838161047857fe5b06925060006002848360010154018161048d57fe5b0490506040516020018080646b6974747960d81b815250600501905060405160208183030381529060405280519060200120836040516020018082805190602001908083835b602083106104f25780518252601f1990920191602091820191016104d3565b6001836020036101000a03801982511681845116808217855250505050505090500191505060405160208183030381529060405280519060200120141561053d576064810690036063015b610565604051806040016040528060068152602001654e6f4e616d6560d01b815250826105a1565b5050505050565b336000908152600460205260409020541561058657600080fd5b6000610591826106f7565b905061059d82826105a1565b5050565b60408051808201909152828152602080820183905260028054600181018255600082905283518051919092027f405787fa12a823e0f2b7631cc41b3ba8828b3321ca811111fa75cd3aa3bb5ace01926105fe928492910190610780565b5060209182015160019182015560025460001901600081815260038452604080822080546001600160a01b03191633908117909155825260048552808220805490940190935582518281529283018590526060838501818152875191850191909152865192947f88f026aacbbecc90c18411df4b1185fd8d9be2470f1962f192bf84a27d0704b79486948994899492936080850192908701918190849084905b838110156106b657818101518382015260200161069e565b50505050905090810190601f1680156106e35780820380516001836020036101000a031916815260200191505b5094505050505060405180910390a1505050565b600080826040516020018082805190602001908083835b6020831061072d5780518252601f19909201916020918201910161070e565b6001836020036101000a0380198251168184511680821785525050505050509050019150506040516020818303038152906040528051906020012060001c9050600154818161077857fe5b069392505050565b828054600181600116156101000203166002900490600052602060002090601f016020900481019282601f106107c157805160ff19168380011785556107ee565b828001600101855582156107ee579182015b828111156107ee5782518255916020019190600101906107d3565b506107fa9291506107fe565b5090565b5b808211156107fa57600081556001016107ff56fea26469706673582212208cdd3c68242fef7e6da643c968d8fe6276717f0a1bbf9af652eb885c647a302a64736f6c63430007030033",
    "sourcePath": "/Users/hugo/Dev/crypto-zombies/contracts/zombiefeeding.sol",
    "compiler": {
        "name": "solc",
        "version": "0.7.3+commit.9bfce1f6"
    },
    "functionHashes": {
        "createRandomZombie(string)": "7bff0a01",
        "feedAndMultiply(uint256,uint256,string)": "6b0bfc80",
        "feedOnKitty(uint256,uint256)": "17a7f4cc",
        "zombieToOwner(uint256)": "528b7b8f",
        "zombies(uint256)": "2052465e"
    },
    "gasEstimates": {
        "creation": {
            "codeDepositCost": "424200",
            "executionCost": "82178",
            "totalCost": "506378"
        },
        "external": {
            "createRandomZombie(string)": "infinite",
            "feedAndMultiply(uint256,uint256,string)": "infinite",
            "feedOnKitty(uint256,uint256)": "infinite",
            "zombieToOwner(uint256)": "1167",
            "zombies(uint256)": "infinite"
        }
    }
}